{
  "contractName": "ToDo",
  "abi": [
    {
      "inputs": [],
      "payable": false,
      "stateMutability": "nonpayable",
      "type": "constructor"
    },
    {
      "anonymous": false,
      "inputs": [
        {
          "indexed": false,
          "internalType": "uint256",
          "name": "id",
          "type": "uint256"
        },
        {
          "indexed": false,
          "internalType": "bool",
          "name": "completed",
          "type": "bool"
        }
      ],
      "name": "taskCompleted",
      "type": "event"
    },
    {
      "anonymous": false,
      "inputs": [
        {
          "indexed": false,
          "internalType": "uint256",
          "name": "id",
          "type": "uint256"
        },
        {
          "indexed": false,
          "internalType": "string",
          "name": "content",
          "type": "string"
        },
        {
          "indexed": false,
          "internalType": "bool",
          "name": "completed",
          "type": "bool"
        }
      ],
      "name": "taskCreated",
      "type": "event"
    },
    {
      "constant": true,
      "inputs": [],
      "name": "TaskCount",
      "outputs": [
        {
          "internalType": "uint256",
          "name": "",
          "type": "uint256"
        }
      ],
      "payable": false,
      "stateMutability": "view",
      "type": "function"
    },
    {
      "constant": true,
      "inputs": [
        {
          "internalType": "uint256",
          "name": "",
          "type": "uint256"
        }
      ],
      "name": "tasks",
      "outputs": [
        {
          "internalType": "uint256",
          "name": "id",
          "type": "uint256"
        },
        {
          "internalType": "string",
          "name": "content",
          "type": "string"
        },
        {
          "internalType": "bool",
          "name": "completed",
          "type": "bool"
        }
      ],
      "payable": false,
      "stateMutability": "view",
      "type": "function"
    },
    {
      "constant": false,
      "inputs": [
        {
          "internalType": "string",
          "name": "_content",
          "type": "string"
        }
      ],
      "name": "addTask",
      "outputs": [],
      "payable": false,
      "stateMutability": "nonpayable",
      "type": "function"
    },
    {
      "constant": false,
      "inputs": [
        {
          "internalType": "uint256",
          "name": "_id",
          "type": "uint256"
        }
      ],
      "name": "taskComplete",
      "outputs": [],
      "payable": false,
      "stateMutability": "nonpayable",
      "type": "function"
    }
  ],
  "bytecode": "0x60806040526000805534801561001457600080fd5b5060408051808201909152600b81526a57656c636f6d65206d652160a81b6020820152610049906001600160e01b0361004e16565b61020d565b600080546001908101808355604080516060810182528281526020808201878152828401879052938652848152919094208451815591518051929361009b93908501929190910190610172565b5060408201518160020160006101000a81548160ff0219169083151502179055509050507f7ffc5def84f84c9a24e3f0ad22a6aa1dcf1626b3936280fe2f8e5d38c636b641600054826000604051808481526020018060200183151515158152602001828103825284818151815260200191508051906020019080838360005b8381101561013357818101518382015260200161011b565b50505050905090810190601f1680156101605780820380516001836020036101000a031916815260200191505b5094505050505060405180910390a150565b828054600181600116156101000203166002900490600052602060002090601f016020900481019282601f106101b357805160ff19168380011785556101e0565b828001600101855582156101e0579182015b828111156101e05782518255916020019190600101906101c5565b506101ec9291506101f0565b5090565b61020a91905b808211156101ec57600081556001016101f6565b90565b6106048061021c6000396000f3fe608060405234801561001057600080fd5b506004361061004c5760003560e01c80635d24c6a81461005157806367238562146100705780638d97767214610116578063bbba4865146101bd575b600080fd5b61006e6004803603602081101561006757600080fd5b50356101d7565b005b61006e6004803603602081101561008657600080fd5b8101906020810181356401000000008111156100a157600080fd5b8201836020820111156100b357600080fd5b803590602001918460018302840111640100000000831117156100d557600080fd5b91908080601f016020809104026020016040519081016040528093929190818152602001838380828437600092019190915250929550610338945050505050565b6101336004803603602081101561012c57600080fd5b503561045c565b604051808481526020018060200183151515158152602001828103825284818151815260200191508051906020019080838360005b83811015610180578181015183820152602001610168565b50505050905090810190601f1680156101ad5780820380516001836020036101000a031916815260200191505b5094505050505060405180910390f35b6101c561050b565b60408051918252519081900360200190f35b6101df610511565b60008281526001602081815260409283902083516060810185528154815281840180548651600296821615610100026000190190911695909504601f810185900485028601850190965285855290949193858401939092908301828280156102885780601f1061025d57610100808354040283529160200191610288565b820191906000526020600020905b81548152906001019060200180831161026b57829003601f168201915b50505091835250506002919091015460ff161515602091820152604080830180511590526000858152600180845291902083518155838301518051949550859491936102d993850192910190610534565b50604091820151600291909101805460ff191691151591909117905581518282015182519182521515602082015281517ffc8c3643622669a0bb21133ffa1738f6d5c2df6b162da4fed93691abb53c4656929181900390910190a15050565b600080546001908101808355604080516060810182528281526020808201878152828401879052938652848152919094208451815591518051929361038593908501929190910190610534565b5060408201518160020160006101000a81548160ff0219169083151502179055509050507f7ffc5def84f84c9a24e3f0ad22a6aa1dcf1626b3936280fe2f8e5d38c636b641600054826000604051808481526020018060200183151515158152602001828103825284818151815260200191508051906020019080838360005b8381101561041d578181015183820152602001610405565b50505050905090810190601f16801561044a5780820380516001836020036101000a031916815260200191505b5094505050505060405180910390a150565b600160208181526000928352604092839020805481840180548651600296821615610100026000190190911695909504601f810185900485028601850190965285855290949193929091908301828280156104f85780601f106104cd576101008083540402835291602001916104f8565b820191906000526020600020905b8154815290600101906020018083116104db57829003601f168201915b5050506002909301549192505060ff1683565b60005481565b604051806060016040528060008152602001606081526020016000151581525090565b828054600181600116156101000203166002900490600052602060002090601f016020900481019282601f1061057557805160ff19168380011785556105a2565b828001600101855582156105a2579182015b828111156105a2578251825591602001919060010190610587565b506105ae9291506105b2565b5090565b6105cc91905b808211156105ae57600081556001016105b8565b9056fea265627a7a72315820f0e436ddba7ab93e7fe165331fe0a85b0b1105764de452e1c94627eb86e5419d64736f6c63430005100032",
  "source": "// SPDX-License-Identifier: MIT\npragma solidity >=0.4.22 <0.9.0;\n\ncontract ToDo {\n    uint public TaskCount = 0;\n    struct Task {\n        uint id;\n        string content;\n        bool completed;\n    }\n    constructor() public {\n        addTask(\"Welcome me!\");\n    }\n\n    event taskCreated(\n        uint id,\n        string content,\n        bool completed\n    );\n\n    event taskCompleted(\n        uint id,\n        bool completed\n    );\n\n    mapping(uint=>Task) public tasks;\n\n    function addTask(string memory _content) public {\n        TaskCount++;\n        tasks[TaskCount] = Task(TaskCount, _content, false);\n        emit taskCreated(TaskCount, _content, false);\n    }\n\n    function taskComplete(uint _id) public {\n        Task memory _tempTask = tasks[_id];\n        _tempTask.completed = !_tempTask.completed;\n        tasks[_id] = _tempTask;\n        emit taskCompleted(_tempTask.id, _tempTask.completed);\n    }\n}\n",
  "sourcePath": "/Users/abhishek/Documents/College/Projects/eth-todolist/contracts/ToDo.sol",
  "compiler": {
    "name": "solc",
    "version": "0.5.16+commit.9c3226ce.Emscripten.clang"
  },
  "schemaVersion": "3.4.16",
  "updatedAt": "2024-04-23T04:49:45.919Z",
  "networkType": "ethereum",
  "devdoc": {
    "methods": {}
  },
  "userdoc": {
    "methods": {}
  }
}